{
  "contractName": "MyNFT",
  "abi": [
    {
      "inputs": [],
      "stateMutability": "nonpayable",
      "type": "constructor"
    },
    {
      "anonymous": false,
      "inputs": [
        {
          "indexed": true,
          "internalType": "address",
          "name": "owner",
          "type": "address"
        },
        {
          "indexed": true,
          "internalType": "address",
          "name": "approved",
          "type": "address"
        },
        {
          "indexed": true,
          "internalType": "uint256",
          "name": "tokenId",
          "type": "uint256"
        }
      ],
      "name": "Approval",
      "type": "event"
    },
    {
      "anonymous": false,
      "inputs": [
        {
          "indexed": true,
          "internalType": "address",
          "name": "owner",
          "type": "address"
        },
        {
          "indexed": true,
          "internalType": "address",
          "name": "operator",
          "type": "address"
        },
        {
          "indexed": false,
          "internalType": "bool",
          "name": "approved",
          "type": "bool"
        }
      ],
      "name": "ApprovalForAll",
      "type": "event"
    },
    {
      "anonymous": false,
      "inputs": [
        {
          "indexed": true,
          "internalType": "address",
          "name": "from",
          "type": "address"
        },
        {
          "indexed": true,
          "internalType": "address",
          "name": "to",
          "type": "address"
        },
        {
          "indexed": true,
          "internalType": "uint256",
          "name": "tokenId",
          "type": "uint256"
        }
      ],
      "name": "Transfer",
      "type": "event"
    },
    {
      "inputs": [
        {
          "internalType": "address",
          "name": "to",
          "type": "address"
        },
        {
          "internalType": "uint256",
          "name": "tokenId",
          "type": "uint256"
        }
      ],
      "name": "approve",
      "outputs": [],
      "stateMutability": "nonpayable",
      "type": "function"
    },
    {
      "inputs": [
        {
          "internalType": "address",
          "name": "owner",
          "type": "address"
        }
      ],
      "name": "balanceOf",
      "outputs": [
        {
          "internalType": "uint256",
          "name": "",
          "type": "uint256"
        }
      ],
      "stateMutability": "view",
      "type": "function",
      "constant": true
    },
    {
      "inputs": [
        {
          "internalType": "uint256",
          "name": "tokenId",
          "type": "uint256"
        }
      ],
      "name": "getApproved",
      "outputs": [
        {
          "internalType": "address",
          "name": "",
          "type": "address"
        }
      ],
      "stateMutability": "view",
      "type": "function",
      "constant": true
    },
    {
      "inputs": [
        {
          "internalType": "address",
          "name": "owner",
          "type": "address"
        },
        {
          "internalType": "address",
          "name": "operator",
          "type": "address"
        }
      ],
      "name": "isApprovedForAll",
      "outputs": [
        {
          "internalType": "bool",
          "name": "",
          "type": "bool"
        }
      ],
      "stateMutability": "view",
      "type": "function",
      "constant": true
    },
    {
      "inputs": [],
      "name": "name",
      "outputs": [
        {
          "internalType": "string",
          "name": "",
          "type": "string"
        }
      ],
      "stateMutability": "view",
      "type": "function",
      "constant": true
    },
    {
      "inputs": [
        {
          "internalType": "uint256",
          "name": "tokenId",
          "type": "uint256"
        }
      ],
      "name": "ownerOf",
      "outputs": [
        {
          "internalType": "address",
          "name": "",
          "type": "address"
        }
      ],
      "stateMutability": "view",
      "type": "function",
      "constant": true
    },
    {
      "inputs": [
        {
          "internalType": "address",
          "name": "from",
          "type": "address"
        },
        {
          "internalType": "address",
          "name": "to",
          "type": "address"
        },
        {
          "internalType": "uint256",
          "name": "tokenId",
          "type": "uint256"
        }
      ],
      "name": "safeTransferFrom",
      "outputs": [],
      "stateMutability": "nonpayable",
      "type": "function"
    },
    {
      "inputs": [
        {
          "internalType": "address",
          "name": "from",
          "type": "address"
        },
        {
          "internalType": "address",
          "name": "to",
          "type": "address"
        },
        {
          "internalType": "uint256",
          "name": "tokenId",
          "type": "uint256"
        },
        {
          "internalType": "bytes",
          "name": "_data",
          "type": "bytes"
        }
      ],
      "name": "safeTransferFrom",
      "outputs": [],
      "stateMutability": "nonpayable",
      "type": "function"
    },
    {
      "inputs": [
        {
          "internalType": "address",
          "name": "operator",
          "type": "address"
        },
        {
          "internalType": "bool",
          "name": "approved",
          "type": "bool"
        }
      ],
      "name": "setApprovalForAll",
      "outputs": [],
      "stateMutability": "nonpayable",
      "type": "function"
    },
    {
      "inputs": [
        {
          "internalType": "bytes4",
          "name": "interfaceId",
          "type": "bytes4"
        }
      ],
      "name": "supportsInterface",
      "outputs": [
        {
          "internalType": "bool",
          "name": "",
          "type": "bool"
        }
      ],
      "stateMutability": "view",
      "type": "function",
      "constant": true
    },
    {
      "inputs": [],
      "name": "symbol",
      "outputs": [
        {
          "internalType": "string",
          "name": "",
          "type": "string"
        }
      ],
      "stateMutability": "view",
      "type": "function",
      "constant": true
    },
    {
      "inputs": [
        {
          "internalType": "uint256",
          "name": "tokenId",
          "type": "uint256"
        }
      ],
      "name": "tokenURI",
      "outputs": [
        {
          "internalType": "string",
          "name": "",
          "type": "string"
        }
      ],
      "stateMutability": "view",
      "type": "function",
      "constant": true
    },
    {
      "inputs": [
        {
          "internalType": "address",
          "name": "from",
          "type": "address"
        },
        {
          "internalType": "address",
          "name": "to",
          "type": "address"
        },
        {
          "internalType": "uint256",
          "name": "tokenId",
          "type": "uint256"
        }
      ],
      "name": "transferFrom",
      "outputs": [],
      "stateMutability": "nonpayable",
      "type": "function"
    },
    {
      "inputs": [
        {
          "internalType": "address",
          "name": "to",
          "type": "address"
        }
      ],
      "name": "mintNFT",
      "outputs": [],
      "stateMutability": "nonpayable",
      "type": "function"
    }
  ],
  "bytecode": "0x60806040523480156200001157600080fd5b506040518060400160405280600681526020017f4d79204e465400000000000000000000000000000000000000000000000000008152506040518060400160405280600481526020017f4d4e465400000000000000000000000000000000000000000000000000000000815250816000908051906020019062000096929190620000b8565b508060019080519060200190620000af929190620000b8565b505050620001cd565b828054620000c69062000197565b90600052602060002090601f016020900481019282620000ea576000855562000136565b82601f106200010557805160ff191683800117855562000136565b8280016001018555821562000136579182015b828111156200013557825182559160200191906001019062000118565b5b50905062000145919062000149565b5090565b5b80821115620001645760008160009055506001016200014a565b5090565b7f4e487b7100000000000000000000000000000000000000000000000000000000600052602260045260246000fd5b60006002820490506001821680620001b057607f821691505b60208210811415620001c757620001c662000168565b5b50919050565b6126d280620001dd6000396000f3fe608060405234801561001057600080fd5b50600436106100ea5760003560e01c80636352211e1161008c578063a22cb46511610066578063a22cb4651461025b578063b88d4fde14610277578063c87b56dd14610293578063e985e9c5146102c3576100ea565b80636352211e146101dd57806370a082311461020d57806395d89b411461023d576100ea565b8063095ea7b3116100c8578063095ea7b31461016d57806323b872dd1461018957806342842e0e146101a557806354ba0f27146101c1576100ea565b806301ffc9a7146100ef57806306fdde031461011f578063081812fc1461013d575b600080fd5b61010960048036038101906101049190611655565b6102f3565b604051610116919061169d565b60405180910390f35b6101276103d5565b6040516101349190611751565b60405180910390f35b610157600480360381019061015291906117a9565b610467565b6040516101649190611817565b60405180910390f35b6101876004803603810190610182919061185e565b6104ec565b005b6101a3600480360381019061019e919061189e565b610604565b005b6101bf60048036038101906101ba919061189e565b610664565b005b6101db60048036038101906101d691906118f1565b610684565b005b6101f760048036038101906101f291906117a9565b6106ad565b6040516102049190611817565b60405180910390f35b610227600480360381019061022291906118f1565b61075f565b604051610234919061192d565b60405180910390f35b610245610817565b6040516102529190611751565b60405180910390f35b61027560048036038101906102709190611974565b6108a9565b005b610291600480360381019061028c9190611ae9565b610a2a565b005b6102ad60048036038101906102a891906117a9565b610a8c565b6040516102ba9190611751565b60405180910390f35b6102dd60048036038101906102d89190611b6c565b610b33565b6040516102ea919061169d565b60405180910390f35b60007f80ac58cd000000000000000000000000000000000000000000000000000000007bffffffffffffffffffffffffffffffffffffffffffffffffffffffff1916827bffffffffffffffffffffffffffffffffffffffffffffffffffffffff191614806103be57507f5b5e139f000000000000000000000000000000000000000000000000000000007bffffffffffffffffffffffffffffffffffffffffffffffffffffffff1916827bffffffffffffffffffffffffffffffffffffffffffffffffffffffff1916145b806103ce57506103cd82610bc7565b5b9050919050565b6060600080546103e490611bdb565b80601f016020809104026020016040519081016040528092919081815260200182805461041090611bdb565b801561045d5780601f106104325761010080835404028352916020019161045d565b820191906000526020600020905b81548152906001019060200180831161044057829003601f168201915b5050505050905090565b600061047282610c31565b6104b1576040517f08c379a00000000000000000000000000000000000000000000000000000000081526004016104a890611c7f565b60405180910390fd5b6004600083815260200190815260200160002060009054906101000a900473ffffffffffffffffffffffffffffffffffffffff169050919050565b60006104f7826106ad565b90508073ffffffffffffffffffffffffffffffffffffffff168373ffffffffffffffffffffffffffffffffffffffff161415610568576040517f08c379a000000000000000000000000000000000000000000000000000000000815260040161055f90611d11565b60405180910390fd5b8073ffffffffffffffffffffffffffffffffffffffff16610587610c9d565b73ffffffffffffffffffffffffffffffffffffffff1614806105b657506105b5816105b0610c9d565b610b33565b5b6105f5576040517f08c379a00000000000000000000000000000000000000000000000000000000081526004016105ec90611da3565b60405180910390fd5b6105ff8383610ca5565b505050565b61061561060f610c9d565b82610d5e565b610654576040517f08c379a000000000000000000000000000000000000000000000000000000000815260040161064b90611e35565b60405180910390fd5b61065f838383610e3c565b505050565b61067f83838360405180602001604052806000815250610a2a565b505050565b6001600660008282546106979190611e84565b925050819055506106aa81600654611098565b50565b6000806002600084815260200190815260200160002060009054906101000a900473ffffffffffffffffffffffffffffffffffffffff169050600073ffffffffffffffffffffffffffffffffffffffff168173ffffffffffffffffffffffffffffffffffffffff161415610756576040517f08c379a000000000000000000000000000000000000000000000000000000000815260040161074d90611f4c565b60405180910390fd5b80915050919050565b60008073ffffffffffffffffffffffffffffffffffffffff168273ffffffffffffffffffffffffffffffffffffffff1614156107d0576040517f08c379a00000000000000000000000000000000000000000000000000000000081526004016107c790611fde565b60405180910390fd5b600360008373ffffffffffffffffffffffffffffffffffffffff1673ffffffffffffffffffffffffffffffffffffffff168152602001908152602001600020549050919050565b60606001805461082690611bdb565b80601f016020809104026020016040519081016040528092919081815260200182805461085290611bdb565b801561089f5780601f106108745761010080835404028352916020019161089f565b820191906000526020600020905b81548152906001019060200180831161088257829003601f168201915b5050505050905090565b6108b1610c9d565b73ffffffffffffffffffffffffffffffffffffffff168273ffffffffffffffffffffffffffffffffffffffff16141561091f576040517f08c379a00000000000000000000000000000000000000000000000000000000081526004016109169061204a565b60405180910390fd5b806005600061092c610c9d565b73ffffffffffffffffffffffffffffffffffffffff1673ffffffffffffffffffffffffffffffffffffffff16815260200190815260200160002060008473ffffffffffffffffffffffffffffffffffffffff1673ffffffffffffffffffffffffffffffffffffffff16815260200190815260200160002060006101000a81548160ff0219169083151502179055508173ffffffffffffffffffffffffffffffffffffffff166109d9610c9d565b73ffffffffffffffffffffffffffffffffffffffff167f17307eab39ab6107e8899845ad3d59bd9653f200f220920489ca2b5937696c3183604051610a1e919061169d565b60405180910390a35050565b610a3b610a35610c9d565b83610d5e565b610a7a576040517f08c379a0000000000000000000000000000000000000000000000000000000008152600401610a7190611e35565b60405180910390fd5b610a8684848484611266565b50505050565b6060610a9782610c31565b610ad6576040517f08c379a0000000000000000000000000000000000000000000000000000000008152600401610acd906120dc565b60405180910390fd5b6000610ae06112c2565b90506000815111610b005760405180602001604052806000815250610b2b565b80610b0a846112d9565b604051602001610b1b929190612138565b6040516020818303038152906040525b915050919050565b6000600560008473ffffffffffffffffffffffffffffffffffffffff1673ffffffffffffffffffffffffffffffffffffffff16815260200190815260200160002060008373ffffffffffffffffffffffffffffffffffffffff1673ffffffffffffffffffffffffffffffffffffffff16815260200190815260200160002060009054906101000a900460ff16905092915050565b60007f01ffc9a7000000000000000000000000000000000000000000000000000000007bffffffffffffffffffffffffffffffffffffffffffffffffffffffff1916827bffffffffffffffffffffffffffffffffffffffffffffffffffffffff1916149050919050565b60008073ffffffffffffffffffffffffffffffffffffffff166002600084815260200190815260200160002060009054906101000a900473ffffffffffffffffffffffffffffffffffffffff1673ffffffffffffffffffffffffffffffffffffffff1614159050919050565b600033905090565b816004600083815260200190815260200160002060006101000a81548173ffffffffffffffffffffffffffffffffffffffff021916908373ffffffffffffffffffffffffffffffffffffffff160217905550808273ffffffffffffffffffffffffffffffffffffffff16610d18836106ad565b73ffffffffffffffffffffffffffffffffffffffff167f8c5be1e5ebec7d5bd14f71427d1e84f3dd0314c0f7b2291e5b200ac8c7c3b92560405160405180910390a45050565b6000610d6982610c31565b610da8576040517f08c379a0000000000000000000000000000000000000000000000000000000008152600401610d9f906121ce565b60405180910390fd5b6000610db3836106ad565b90508073ffffffffffffffffffffffffffffffffffffffff168473ffffffffffffffffffffffffffffffffffffffff161480610e2257508373ffffffffffffffffffffffffffffffffffffffff16610e0a84610467565b73ffffffffffffffffffffffffffffffffffffffff16145b80610e335750610e328185610b33565b5b91505092915050565b8273ffffffffffffffffffffffffffffffffffffffff16610e5c826106ad565b73ffffffffffffffffffffffffffffffffffffffff1614610eb2576040517f08c379a0000000000000000000000000000000000000000000000000000000008152600401610ea990612260565b60405180910390fd5b600073ffffffffffffffffffffffffffffffffffffffff168273ffffffffffffffffffffffffffffffffffffffff161415610f22576040517f08c379a0000000000000000000000000000000000000000000000000000000008152600401610f19906122f2565b60405180910390fd5b610f2d83838361143a565b610f38600082610ca5565b6001600360008573ffffffffffffffffffffffffffffffffffffffff1673ffffffffffffffffffffffffffffffffffffffff1681526020019081526020016000206000828254610f889190612312565b925050819055506001600360008473ffffffffffffffffffffffffffffffffffffffff1673ffffffffffffffffffffffffffffffffffffffff1681526020019081526020016000206000828254610fdf9190611e84565b92505081905550816002600083815260200190815260200160002060006101000a81548173ffffffffffffffffffffffffffffffffffffffff021916908373ffffffffffffffffffffffffffffffffffffffff160217905550808273ffffffffffffffffffffffffffffffffffffffff168473ffffffffffffffffffffffffffffffffffffffff167fddf252ad1be2c89b69c2b068fc378daa952ba7f163c4a11628f55a4df523b3ef60405160405180910390a4505050565b600073ffffffffffffffffffffffffffffffffffffffff168273ffffffffffffffffffffffffffffffffffffffff161415611108576040517f08c379a00000000000000000000000000000000000000000000000000000000081526004016110ff90612392565b60405180910390fd5b61111181610c31565b15611151576040517f08c379a0000000000000000000000000000000000000000000000000000000008152600401611148906123fe565b60405180910390fd5b61115d6000838361143a565b6001600360008473ffffffffffffffffffffffffffffffffffffffff1673ffffffffffffffffffffffffffffffffffffffff16815260200190815260200160002060008282546111ad9190611e84565b92505081905550816002600083815260200190815260200160002060006101000a81548173ffffffffffffffffffffffffffffffffffffffff021916908373ffffffffffffffffffffffffffffffffffffffff160217905550808273ffffffffffffffffffffffffffffffffffffffff16600073ffffffffffffffffffffffffffffffffffffffff167fddf252ad1be2c89b69c2b068fc378daa952ba7f163c4a11628f55a4df523b3ef60405160405180910390a45050565b611271848484610e3c565b61127d8484848461143f565b6112bc576040517f08c379a00000000000000000000000000000000000000000000000000000000081526004016112b390612490565b60405180910390fd5b50505050565b606060405180602001604052806000815250905090565b60606000821415611321576040518060400160405280600181526020017f30000000000000000000000000000000000000000000000000000000000000008152509050611435565b600082905060005b6000821461135357808061133c906124b0565b915050600a8261134c9190612528565b9150611329565b60008167ffffffffffffffff81111561136f5761136e6119be565b5b6040519080825280601f01601f1916602001820160405280156113a15781602001600182028036833780820191505090505b5090505b6000851461142e576001826113ba9190612312565b9150600a856113c99190612559565b60306113d59190611e84565b60f81b8183815181106113eb576113ea61258a565b5b60200101907effffffffffffffffffffffffffffffffffffffffffffffffffffffffffffff1916908160001a905350600a856114279190612528565b94506113a5565b8093505050505b919050565b505050565b60006114608473ffffffffffffffffffffffffffffffffffffffff166115d6565b156115c9578373ffffffffffffffffffffffffffffffffffffffff1663150b7a02611489610c9d565b8786866040518563ffffffff1660e01b81526004016114ab949392919061260e565b602060405180830381600087803b1580156114c557600080fd5b505af19250505080156114f657506040513d601f19601f820116820180604052508101906114f3919061266f565b60015b611579573d8060008114611526576040519150601f19603f3d011682016040523d82523d6000602084013e61152b565b606091505b50600081511415611571576040517f08c379a000000000000000000000000000000000000000000000000000000000815260040161156890612490565b60405180910390fd5b805181602001fd5b63150b7a0260e01b7bffffffffffffffffffffffffffffffffffffffffffffffffffffffff1916817bffffffffffffffffffffffffffffffffffffffffffffffffffffffff1916149150506115ce565b600190505b949350505050565b600080823b905060008111915050919050565b6000604051905090565b600080fd5b600080fd5b60007fffffffff0000000000000000000000000000000000000000000000000000000082169050919050565b611632816115fd565b811461163d57600080fd5b50565b60008135905061164f81611629565b92915050565b60006020828403121561166b5761166a6115f3565b5b600061167984828501611640565b91505092915050565b60008115159050919050565b61169781611682565b82525050565b60006020820190506116b2600083018461168e565b92915050565b600081519050919050565b600082825260208201905092915050565b60005b838110156116f25780820151818401526020810190506116d7565b83811115611701576000848401525b50505050565b6000601f19601f8301169050919050565b6000611723826116b8565b61172d81856116c3565b935061173d8185602086016116d4565b61174681611707565b840191505092915050565b6000602082019050818103600083015261176b8184611718565b905092915050565b6000819050919050565b61178681611773565b811461179157600080fd5b50565b6000813590506117a38161177d565b92915050565b6000602082840312156117bf576117be6115f3565b5b60006117cd84828501611794565b91505092915050565b600073ffffffffffffffffffffffffffffffffffffffff82169050919050565b6000611801826117d6565b9050919050565b611811816117f6565b82525050565b600060208201905061182c6000830184611808565b92915050565b61183b816117f6565b811461184657600080fd5b50565b60008135905061185881611832565b92915050565b60008060408385031215611875576118746115f3565b5b600061188385828601611849565b925050602061189485828601611794565b9150509250929050565b6000806000606084860312156118b7576118b66115f3565b5b60006118c586828701611849565b93505060206118d686828701611849565b92505060406118e786828701611794565b9150509250925092565b600060208284031215611907576119066115f3565b5b600061191584828501611849565b91505092915050565b61192781611773565b82525050565b6000602082019050611942600083018461191e565b92915050565b61195181611682565b811461195c57600080fd5b50565b60008135905061196e81611948565b92915050565b6000806040838503121561198b5761198a6115f3565b5b600061199985828601611849565b92505060206119aa8582860161195f565b9150509250929050565b600080fd5b600080fd5b7f4e487b7100000000000000000000000000000000000000000000000000000000600052604160045260246000fd5b6119f682611707565b810181811067ffffffffffffffff82111715611a1557611a146119be565b5b80604052505050565b6000611a286115e9565b9050611a3482826119ed565b919050565b600067ffffffffffffffff821115611a5457611a536119be565b5b611a5d82611707565b9050602081019050919050565b82818337600083830152505050565b6000611a8c611a8784611a39565b611a1e565b905082815260208101848484011115611aa857611aa76119b9565b5b611ab3848285611a6a565b509392505050565b600082601f830112611ad057611acf6119b4565b5b8135611ae0848260208601611a79565b91505092915050565b60008060008060808587031215611b0357611b026115f3565b5b6000611b1187828801611849565b9450506020611b2287828801611849565b9350506040611b3387828801611794565b925050606085013567ffffffffffffffff811115611b5457611b536115f8565b5b611b6087828801611abb565b91505092959194509250565b60008060408385031215611b8357611b826115f3565b5b6000611b9185828601611849565b9250506020611ba285828601611849565b9150509250929050565b7f4e487b7100000000000000000000000000000000000000000000000000000000600052602260045260246000fd5b60006002820490506001821680611bf357607f821691505b60208210811415611c0757611c06611bac565b5b50919050565b7f4552433732313a20617070726f76656420717565727920666f72206e6f6e657860008201527f697374656e7420746f6b656e0000000000000000000000000000000000000000602082015250565b6000611c69602c836116c3565b9150611c7482611c0d565b604082019050919050565b60006020820190508181036000830152611c9881611c5c565b9050919050565b7f4552433732313a20617070726f76616c20746f2063757272656e74206f776e6560008201527f7200000000000000000000000000000000000000000000000000000000000000602082015250565b6000611cfb6021836116c3565b9150611d0682611c9f565b604082019050919050565b60006020820190508181036000830152611d2a81611cee565b9050919050565b7f4552433732313a20617070726f76652063616c6c6572206973206e6f74206f7760008201527f6e6572206e6f7220617070726f76656420666f7220616c6c0000000000000000602082015250565b6000611d8d6038836116c3565b9150611d9882611d31565b604082019050919050565b60006020820190508181036000830152611dbc81611d80565b9050919050565b7f4552433732313a207472616e736665722063616c6c6572206973206e6f74206f60008201527f776e6572206e6f7220617070726f766564000000000000000000000000000000602082015250565b6000611e1f6031836116c3565b9150611e2a82611dc3565b604082019050919050565b60006020820190508181036000830152611e4e81611e12565b9050919050565b7f4e487b7100000000000000000000000000000000000000000000000000000000600052601160045260246000fd5b6000611e8f82611773565b9150611e9a83611773565b9250827fffffffffffffffffffffffffffffffffffffffffffffffffffffffffffffffff03821115611ecf57611ece611e55565b5b828201905092915050565b7f4552433732313a206f776e657220717565727920666f72206e6f6e657869737460008201527f656e7420746f6b656e0000000000000000000000000000000000000000000000602082015250565b6000611f366029836116c3565b9150611f4182611eda565b604082019050919050565b60006020820190508181036000830152611f6581611f29565b9050919050565b7f4552433732313a2062616c616e636520717565727920666f7220746865207a6560008201527f726f206164647265737300000000000000000000000000000000000000000000602082015250565b6000611fc8602a836116c3565b9150611fd382611f6c565b604082019050919050565b60006020820190508181036000830152611ff781611fbb565b9050919050565b7f4552433732313a20617070726f766520746f2063616c6c657200000000000000600082015250565b60006120346019836116c3565b915061203f82611ffe565b602082019050919050565b6000602082019050818103600083015261206381612027565b9050919050565b7f4552433732314d657461646174613a2055524920717565727920666f72206e6f60008201527f6e6578697374656e7420746f6b656e0000000000000000000000000000000000602082015250565b60006120c6602f836116c3565b91506120d18261206a565b604082019050919050565b600060208201905081810360008301526120f5816120b9565b9050919050565b600081905092915050565b6000612112826116b8565b61211c81856120fc565b935061212c8185602086016116d4565b80840191505092915050565b60006121448285612107565b91506121508284612107565b91508190509392505050565b7f4552433732313a206f70657261746f7220717565727920666f72206e6f6e657860008201527f697374656e7420746f6b656e0000000000000000000000000000000000000000602082015250565b60006121b8602c836116c3565b91506121c38261215c565b604082019050919050565b600060208201905081810360008301526121e7816121ab565b9050919050565b7f4552433732313a207472616e73666572206f6620746f6b656e2074686174206960008201527f73206e6f74206f776e0000000000000000000000000000000000000000000000602082015250565b600061224a6029836116c3565b9150612255826121ee565b604082019050919050565b600060208201905081810360008301526122798161223d565b9050919050565b7f4552433732313a207472616e7366657220746f20746865207a65726f2061646460008201527f7265737300000000000000000000000000000000000000000000000000000000602082015250565b60006122dc6024836116c3565b91506122e782612280565b604082019050919050565b6000602082019050818103600083015261230b816122cf565b9050919050565b600061231d82611773565b915061232883611773565b92508282101561233b5761233a611e55565b5b828203905092915050565b7f4552433732313a206d696e7420746f20746865207a65726f2061646472657373600082015250565b600061237c6020836116c3565b915061238782612346565b602082019050919050565b600060208201905081810360008301526123ab8161236f565b9050919050565b7f4552433732313a20746f6b656e20616c7265616479206d696e74656400000000600082015250565b60006123e8601c836116c3565b91506123f3826123b2565b602082019050919050565b60006020820190508181036000830152612417816123db565b9050919050565b7f4552433732313a207472616e7366657220746f206e6f6e20455243373231526560008201527f63656976657220696d706c656d656e7465720000000000000000000000000000602082015250565b600061247a6032836116c3565b91506124858261241e565b604082019050919050565b600060208201905081810360008301526124a98161246d565b9050919050565b60006124bb82611773565b91507fffffffffffffffffffffffffffffffffffffffffffffffffffffffffffffffff8214156124ee576124ed611e55565b5b600182019050919050565b7f4e487b7100000000000000000000000000000000000000000000000000000000600052601260045260246000fd5b600061253382611773565b915061253e83611773565b92508261254e5761254d6124f9565b5b828204905092915050565b600061256482611773565b915061256f83611773565b92508261257f5761257e6124f9565b5b828206905092915050565b7f4e487b7100000000000000000000000000000000000000000000000000000000600052603260045260246000fd5b600081519050919050565b600082825260208201905092915050565b60006125e0826125b9565b6125ea81856125c4565b93506125fa8185602086016116d4565b61260381611707565b840191505092915050565b60006080820190506126236000830187611808565b6126306020830186611808565b61263d604083018561191e565b818103606083015261264f81846125d5565b905095945050505050565b60008151905061266981611629565b92915050565b600060208284031215612685576126846115f3565b5b60006126938482850161265a565b9150509291505056fea264697066735822122073c437b49e5d413530a6135f0fa8b7be5210c8041754cb5edf4d9c10e3947bf564736f6c63430008090033",
  "immutableReferences": {},
  "source": "// SPDX-License-Identifier: MIT\r\npragma solidity 0.8.9;\r\n\r\nimport \"@openzeppelin/contracts/token/ERC721/ERC721.sol\";\r\n\r\ncontract MyNFT is ERC721 {\r\n    uint256 token_count;\r\n\r\n    constructor() ERC721(\"My NFT\", \"MNFT\") {}\r\n\r\n    function mintNFT(address to) public\r\n    {\r\n        token_count  += 1;\r\n        _mint(to, token_count);\r\n    }\r\n}",
  "sourcePath": "/home/turupawn/Projects/GameBlock/contracts/MyNFT.sol",
  "compiler": {
    "name": "solc",
    "version": "0.8.9+commit.e5eed63a.Emscripten.clang"
  },
  "schemaVersion": "3.4.3",
  "updatedAt": "2021-11-01T01:17:43.685Z",
  "networkType": "ethereum",
  "devdoc": {
    "kind": "dev",
    "methods": {
      "approve(address,uint256)": {
        "details": "See {IERC721-approve}."
      },
      "balanceOf(address)": {
        "details": "See {IERC721-balanceOf}."
      },
      "getApproved(uint256)": {
        "details": "See {IERC721-getApproved}."
      },
      "isApprovedForAll(address,address)": {
        "details": "See {IERC721-isApprovedForAll}."
      },
      "name()": {
        "details": "See {IERC721Metadata-name}."
      },
      "ownerOf(uint256)": {
        "details": "See {IERC721-ownerOf}."
      },
      "safeTransferFrom(address,address,uint256)": {
        "details": "See {IERC721-safeTransferFrom}."
      },
      "safeTransferFrom(address,address,uint256,bytes)": {
        "details": "See {IERC721-safeTransferFrom}."
      },
      "setApprovalForAll(address,bool)": {
        "details": "See {IERC721-setApprovalForAll}."
      },
      "supportsInterface(bytes4)": {
        "details": "See {IERC165-supportsInterface}."
      },
      "symbol()": {
        "details": "See {IERC721Metadata-symbol}."
      },
      "tokenURI(uint256)": {
        "details": "See {IERC721Metadata-tokenURI}."
      },
      "transferFrom(address,address,uint256)": {
        "details": "See {IERC721-transferFrom}."
      }
    },
    "version": 1
  },
  "userdoc": {
    "kind": "user",
    "methods": {},
    "version": 1
  }
}